:020000040800F2
:10000000282D01209D010008A5010008A701000876
:10001000A9010008AB010008AD01000800000000C4
:10002000000000000000000000000000AF01000818
:10003000B101000800000000B30100081D3F0108E5
:10004000B7010008B7010008B7010008B7010008B0
:10005000B7010008B7010008B7010008B7010008A0
:1000600089490008C5490008014A0008B70100088D
:10007000B7010008B7010008B7010008B701000880
:10008000B7010008B7010008B7010008B701000870
:10009000B7010008B7010008B70100083D4A000891
:1000A000B7010008B7010008B7010008B701000850
:1000B000B7010008B7010008B7010008B701000840
:1000C000B7010008B7010008B7010008B701000830
:1000D000B7010008654E0108B7010008B701000824
:1000E000B7010008B7010008B7010008B701000810
:1000F000B7010008B7010008B7010008B701000800
:10010000B7010008B7010008B7010008B7010008EF
:10011000B7010008B701000815420108B70100083F
:10012000B7010008B7010008B7010008B7010008CF
:10013000B7010008B7010008B7010008B7010008BF
:10014000B7010008B7010008B7010008B7010008AF
:10015000B7010008B7010008B7010008B70100089F
:10016000B7010008B7010008B7010008B70100088F
:10017000B7010008B7010008B7010008B70100087F
:10018000B7010008B7010008DFF80CD000F0CEF886
:1001900000480047F9620108282D012006488047E1
:1001A00006480047FEE7FEE7FEE7FEE7FEE7FEE75C
:1001B000FEE7FEE7FEE7FEE7B94001088901000817
:1001C0002DE9F05F0546002092469B46884606468C
:1001D000814640241BE0284641464746224600F01F
:1001E00094F853465A46C01A914110D31146184606
:1001F000224600F07BF82D1A67EB01084F46224695
:100200000120002100F072F817EB00094E41201E7A
:10021000A4F10104DFDC484631462A464346BDE8E6
:10022000F09F40EA01039B0703D009E008C9121FB1
:1002300008C0042AFAD203E011F8013B00F8013BA0
:10024000521EF9D27047D2B201E000F8012B491ECC
:10025000FBD270470022F6E710B513460A46044663
:100260001946FFF7F0FF204610BD30B505462A4677
:100270000B4612F8010B13F8014B08B1A042F8D05D
:100280001CB1002802D06D1CF1E7284630BD10B526
:10029000044604E00B7800F8013B03B1491C521EF0
:1002A000F8D2204610BD421C10F8011B0029FBD1DA
:1002B000801A704730B504460020034600E05B1CFE
:1002C000934203D2E05CCD5C401BF8D030BD30B52A
:1002D00005460020034600E05B1C934205D2EC5C1F
:1002E000C85C201A01D1002CF6D130BD202A04DBD5
:1002F000203A00FA02F1002070479140C2F1200339
:1003000020FA03F3194390407047202A04DB203A77
:1003100021FA02F00021704721FA02F3D040C2F125
:10032000200291400843194670470000064C074DD3
:1003300006E0E06840F0010394E8070098471034B5
:10034000AC42F6D3FFF724FF940E0C08C40E0C0841
:1003500070B58C1810F8015B15F0070301D110F887
:10036000013B2A1106D110F8012B03E010F8016BB4
:1003700001F8016B5B1EF9D12B0705D40023521E37
:100380000DD401F8013BFAE710F8013BCB1A921C9F
:1003900003E013F8015B01F8015B521EF9D5A1429D
:1003A000D8D3002070BD00000649C869421C01D0A6
:1003B000401CC861086A401C08624FF4FA6001F0F2
:1003C000CFBA00001803002018B1012803D003A001
:1003D000704705A0704706A0704700004741534F83
:1003E0004C494E410000000044494553454C000033
:1003F00041524C4100000000032808D2054901EB9E
:1004000000110A780AB108467047FFF7DDBF0248BD
:100410007047000094C2002040D7000810B5044681
:10042000174802F0C9FA174954B1012C10D0022C18
:1004300019D0032C1AD0042C1BD0052C1CD010E092
:1004400091F84B1069B1012809D0032807D008E0C2
:1004500011F84C2F49780A4303D00228F5D1012026
:1004600010BD002010BD91F84E0010BD91F84F0056
:1004700010BD91F8500010BD91F8510010BD000062
:10048000D40200201800002070B5294C0125032655
:1004900084F84B5084F84C5084F84D5084F84E50FA
:1004A00084F84F5084F8505084F8515084F85250DA
:1004B00084F8535084F854601EA210211F4814F091
:1004C00015FC1E481EA21021103014F00FFC1B4812
:1004D0001DA21021203014F009FC04F581700221C6
:1004E0000570417086701B48002505604560856079
:1004F00072B62846174A0C3202F1240152F8203015
:1005000041F82030401CC0B20328F7D362B6642003
:10051000B5FBF0F3B5FBF0F2B5FBF0F10E4815F0CA
:1005200058FA04F8555F6570A570E57070BD00005D
:100530001800002044494553454C000094C2002057
:1005400041524C41000000004741534F4C494E413D
:100550000000000084EA002018610020F0B50021AE
:1005600017A71AA40A461D4D03E06E54521CD2B2BE
:10057000D9B2BE5C16B14B1C402BF6D378B10278D1
:100580006AB18A1C402A0AD2002203E06E54521C2F
:10059000D2B2D9B2865C16B14B1C402BF6D30020E8
:1005A00003E06B54401CC0B2D1B2235C13B14A1CAF
:1005B000402AF6D3002068540948C564F0BD000005
:1005C00056656963756C6F20000000002073656CD0
:1005D0006563696F6E61646F0000000001E90020CF
:1005E0009802002030B5144D422120222970452167
:1005F00069704D21A970EA705621297149216971EC
:100600004E21A9714421E9714F212972092170B14C
:10061000037863B16A720A21002203E06C54521C11
:10062000D2B2D9B2845C14B14B1C402BF6D300205B
:1006300068540248C56430BD01E9002098020020DA
:10064000A0F14101192901D82030C0B27047000043
:1006500030B504460748002208E054F82250064B03
:1006600003FB025343404FEAF360521C8A42F4D327
:1006700030BD0000F5792B6DB179379E2DE9F04141
:100680008CB0684600F06AF800285BD02F4B0298C7
:1006900000241968884201D9012418600398596818
:1006A000884201D90124586004989968884201D988
:1006B00001249860264905984A69904203D9486107
:1006C00006980124C86107988A69904203D9886115
:1006D0000898012408621E4D099880356A6C904282
:1006E00001D9012468641B4AC86920B9B2F86600C0
:1006F00008B10124C861086A20B9B2F8640008B1E1
:100700000124086218685E688046002280199F688C
:1007100042EB0201C019514164220023FFF750FD52
:100720006421B7FBF1F3B6FBF1F2B8FBF1F1A8627B
:10073000094815F04EF91CB14FF4FA6001F010F9B8
:1007400000F052F80CB0BDE8F081000084EA00200F
:1007500098020020980000201861002010B58AB08F
:1007600004003AD01E4801681E4A914235D1016802
:100770002160426862608168A160C168E1600169CE
:100780002161416961618169A161C169E161016AB8
:100790002162416A6162816AA162C06AE06241408D
:1007A000491C1AD10092A0680190E068029020696B
:1007B000039060690490A0690590E0690690206A42
:1007C0000790606A089009216846FFF741FFA16A17
:1007D000814202D101200AB010BD0020FBE70000D9
:1007E00000400240544952432DE9F04F2148204E29
:1007F0008DB0D0E900729046756AD0F80890D6F8AE
:1008000014A0F2690A92B26906F180000B92426C60
:10081000D6F820B06D1C8DE8A403CDF814A00A9A78
:1008200006920B9ACDE9072B009A104C092101A8DA
:100830000992FFF70DFFC143002222606560A760A7
:10084000C4F80C80C4F81090C4F814A00A9AA261ED
:100850000B9AE261C4F820B0009A6262A062E16281
:100860000548206075620DB0BDE8F08F0040024081
:100870009802002084EA00205449524310B590B0F9
:10088000040032D01B4908681B4A90422DD14822EF
:100890002046FFF7C6FCD4E910014840401C24D193
:1008A00060680090A0680190E06802902069039061
:1008B00060690490A0690590E0690690206A07903D
:1008C000606A0890A06A0990E06A0A90206B0B9019
:1008D000606B0C90A06B0D90E06B0E900F21684642
:1008E000FFF7B6FE216C814202D0002010B010BD8F
:1008F0000120FBE7804002404744424410B5A4B0C9
:10090000002854D001462B4C482202A8FFF789FC4E
:100910002948029003980F21401C039014900498DA
:1009200015900598169006981790079818900898B3
:10093000199009981A900A981B900B981C900C9883
:100940001D900D981E900E981F900F982090109853
:1009500021901198229014A8FFF77AFE1290C043BC
:10096000139000202060039860600498A0600598B0
:10097000E06006982061079860610898A061099876
:10098000E0610A9820620B9860620C98A0620D9852
:10099000E0620E9820630F9860631098A06311982E
:1009A000E06312982064139860640298206024B079
:1009B00010BD0000804002404744424430B587B03B
:1009C000012102200FF026FE012110200FF03AFE37
:1009D00001254FF400508DF81050002403908DF83D
:1009E00012408DF8134002208DF8110003A91A4817
:1009F00007F01AF9002000F089F8684613F088FC27
:100A0000ADF800400194ADF80840ADF80240134C39
:100A10006946204613F03EFC0121204613F012FCEB
:100A200001221146204613F026FC0021204613F037
:100A30000CFC36208DF814000F208DF815008DF871
:100A400016008DF8175005A80EF08CFE40F6B83051
:100A500000F068F807B030BD00040240001000400C
:100A600002490122881E00F00BB80000E67C010854
:100A700002490322881F00F003B80000EE7C010841
:100A80002DE9F04172B61F4F4FF0000C87F81BC0E4
:100A900087F81CC087F81DC007F5C07ECEF85CC083
:100AA00048B141B13AB1042A00D90422164C0023BE
:100AB00004F108060CE000F091F81FE030F8135044
:100AC00024F8135031F8135026F813505B1CDBB296
:100AD0009342F3D37A7787F81CC00120F8763188E7
:100AE000DEF830000844CEF85C0020880028E2D010
:100AF0000029E0D000F016F800F05AF862B6BDE820
:100B0000F0810000180000207C030020044A002827
:100B10004FF40051104601D007F0D7B807F0D3B812
:100B20000004024070B5050000D101251B48026891
:100B30001B480068C0F38220042802D24FF0010154
:100B400008E002D14FF0020104E005280DD006288C
:100B50000DD01021B2FBF1F0012900D04000114B63
:100B60006900B0FBF3F222B104E00421F2E70821AE
:100B7000F0E70122B3FBF1F4521E04B901240A4E3E
:100B800091B201223046641E13F07DFB21463046AF
:100B900013F07CFB0548A0F8545070BDB40300204E
:100BA0000838024040420F0000100040980000202A
:100BB00010B50020FFF7AAFF074C0021204613F0D4
:100BC00067FB0121204613F03DFB2046BDE81040A5
:100BD000012113F03ABB00000010004010B50021C5
:100BE000034813F032FBBDE810400020FFF78EBF32
:100BF000001000402DE9F8430E46040001D0402EBD
:100C000002D20020BDE8F883E44AE54F92F84100A3
:100C1000207092F84B00607092F84C00A07092F82F
:100C20004D00E07092F84E00207192F84F00607114
:100C300092F85000A07192F85100E07192F85200C1
:100C4000207292F85300607292F85400A0720B2048
:100C50000023002107EB0315B04203D215F801C0B1
:100C600004F800C0401C491CC9B280B21029F3D35B
:100C70005B1CDBB2032BECD3CA4D00216B5C5F1E07
:100C8000032F01D34B1CDBB22354401C491CC9B2B7
:100C900080B20329F2D392F855102154401CC04F62
:100CA000002380B2403703EB8305002107EB850565
:100CB000B04203D215F801C004F800C0401C491C22
:100CC000C9B280B21429F3D35B1CDBB2102BEAD378
:100CD00092F856102154401CB34F80B2002303EB0E
:100CE0008305002107EB8505B04203D215F801C04A
:100CF00004F800C0401C491CC9B280B21429F3D3C7
:100D00005B1CDBB2102BEAD392F857102154401C25
:100D1000A64F80B2002303EB8305002107EB850576
:100D2000B04203D215F801C004F800C0401C491CB1
:100D3000C9B280B21429F3D35B1CDBB2102BEAD307
:100D400092F858102154401C994D80B2002202EBB9
:100D50008203002105EB8303B04201D25F5C27547C
:100D6000401C491CC9B280B21429F5D3521CD2B21E
:100D7000102AECD3894DADF8000080356A46B5F8ED
:100D800064303146204600F0B3FDBDF80000894FC5
:100D90000023C3EBC30202EB420200213A44B042FB
:100DA00003D212F801C004F800C0401C491CC9B2AB
:100DB00080B20429F3D3B04201D211792154401CEE
:100DC00080B20021B04205D202EB010C9CF805C0B4
:100DD00004F800C0401C491CC9B280B21429F1D3E8
:100DE0005B1CDBB2C82BD4D3ADF80000A846B5F825
:100DF00066306A463146204600F07AFDBDF8005064
:100E0000DFF8B4910027C7EBC70101EB41010020D7
:100E10004944B54201D20A5C62556D1C401CC0B207
:100E2000ADB20428F5D30020B54202D20A181279D7
:100E300062556D1C401CC0B2ADB21428F4D3B5424B
:100E400003D2087D01F098FE60556D1C7F1CFFB237
:100E5000ADB2C82FD7D3ADF80050584D6A463146D1
:100E600020466B6900F054FD6A4631462046EB6926
:100E700000F04EFD6A4631462046AB6900F048FD61
:100E80006A46314620462B6A00F042FDBDF800005C
:100E90004B4DADF800006A46314620462B6800F005
:100EA00037FD6A46314620466B6800F031FD6A46E0
:100EB00031462046AB6800F02BFD404D6A46803538
:100EC000314620466B6C00F023FD05F150076A4661
:100ED0003B883146204600F01BFD7B886A46314640
:100EE000204600F015FDBB886A463146204600F0DA
:100EF0000FFD334F6A46603F314620463B6800F0A5
:100F000007FD6A46314620467B6800F001FD6A46CF
:100F100031462046BB6800F0FBFC6A46314620465D
:100F2000EB6900F0F5FC6A4631462046EB6B00F0B9
:100F3000EFFC6A46314620462B6C00F0E9FC98F83D
:100F40000D1098F80E20490602F00F0241EA4251B6
:100F500098F80F2098F8110002F01F0241EA0241B0
:100F600098F8102000F03F0002F01F0241EAC22171
:100F700041EA40136A463146204600F0C9FCBDF8FC
:100F80000040B44204D90121204600F0F7FD38E6C4
:100F90000021204600F0F2FD204633E61800002034
:100FA00094C200201A01002014C4002054C500205F
:100FB00094C60020D4C700203CD80020980200200E
:100FC00084EA002030B504460648002207E0A55C0C
:100FD000054B03FB025343404FEAF360521C8A4225
:100FE000F5D330BD932E1C4AB179379E30B528B168
:100FF00022B11BB11488A51C8D4201D9002030BD3F
:101000002044008818801580012030BD30B528B1FB
:1010100022B11BB11488251D8D4201D9002030BD9D
:101020002044C178006861F31F60186015800120BA
:1010300030BD00002DE9FF5FDFF800844FF00009AC
:1010400088F85C90FE480169FE4A914203D0002373
:101050001A46022082E34569012D14D0022D12D0D8
:10106000032D10D0042D0ED0052D0CD0062D0AD046
:10107000072D08D0082D06D0092D04D000231A46CC
:10108000294603206AE3866916B1B6F5004F04D9F4
:1010900000231A463146042060E3C769082D02D3B5
:1010A000E74C243401E0E64C203431462046FFF77B
:1010B00089FF0346B84203D03A46314605204DE346
:1010C000ADF80090217888F841104FF0010AADF892
:1010D00000A0617888F84B10A17888F84C10E1786E
:1010E00088F84D10217988F84E10617988F84F10F2
:1010F000A179404688F85010E17980F85110217AA2
:1011000080F85210627A0A2380F853204F464FF03D
:10111000030BADF80030114303D100F852AF80F853
:1011200001A0A17A88F854100B20C146ADF8000048
:10113000F9B1032901D989F854B0DFF80C830021F3
:10114000002008EB0112BDF8003014F803C002F8CB
:1011500000C05B1C401CC0B2ADF800301028F2D3B8
:10116000491CC9B2D7730329EAD398F8000018B113
:101170000AE089F854A0E0E70020FFF725F90246CD
:101180001021B14813F0B2FD98F8100040B90120C9
:10119000FFF71AF90246AC481021103013F0A6FDF3
:1011A00098F8200040B90220FFF70EF90246A64841
:1011B0001021203013F09AFDA44B0120187002205A
:1011C000587003209870032D15D3BDF80000C01C83
:1011D000B04210D80020BDF80020A15C521CADF830
:1011E00000204A1E032A01D3411CC9B21954401CD5
:1011F000C0B20328EFD3BDF800004FF0100C215C03
:10120000401C89F85510ADF80000102901D989F863
:1012100055C0DFF834A200210AF1400A01EB810336
:1012200000200AEB8302BDF8003014F8038002F8B6
:1012300000805B1C401CC0B2ADF800301428F2D313
:10124000491CC9B2D7741029E8D3BDF80000C846BC
:10125000215C401C89F85610ADF80000102901D916
:1012600088F856C0DFF8E8A10021B94601EB8103F8
:1012700000200AEB8302BDF80030E75C17545B1CCA
:10128000401CC0B2ADF800301428F4D3491CC9B2D8
:10129000484682F813901029E8D3BDF80010625C2C
:1012A000491C88F85720ADF80010102A01D988F899
:1012B00057C0DFF8A0A10021814601EB8103002087
:1012C0000AEB8302BDF80030E75C17545B1C401C3E
:1012D000C0B2ADF800301428F4D3491CC9B2484656
:1012E00082F813901029E8D3BDF80010C346434696
:1012F000625C491C88F85820ADF80010102A01D90A
:1013000083F858C0544F0021814601EB8102002030
:1013100007EB8203BDF8002014F802C003F800C0F8
:10132000521C401CC0B2ADF800201428F2D3491C56
:10133000C9B283F813901029E7D3404F8037092DA5
:101340000AD301AB6A4631462046FFF74FFEBDF88F
:101350000400A7F8640007E0BDF80000215CA7F8CE
:101360006410401CADF80000B7F86400BA464FF0B6
:10137000C808C82801D9AAF86480384F0022C2EBF7
:10138000C20101EB410100203944BDF8003014F8DE
:1013900003C001F800C05B1C401CC0B2ADF80030B7
:1013A0000428F2D398B2235C401C0B71ADF8000006
:1013B000022D13D30020BDF8003014F803C05B1CCD
:1013C000ADF80030102802D20B1883F805C0401C7D
:1013D000C0B21428EFD381F8149001E081F8059091
:1013E000521CD2B2C82ACAD3092D0AD301AB6A460D
:1013F00031462046FFF7FAFDBDF80410AAF8661042
:1014000007E0BDF80000225CAAF86620401CADF899
:101410000000BAF86600C82801D9AAF866804FF023
:101420000008C8EBC8010E4A002001EB41018F18EB
:10143000BDF80010625C3A54491C13E0180000200B
:1014400000000E083147464394C200201A010020D4
:1014500014C4002054C5002094C60020D4C7002026
:101460003CD80020401CC0B2ADF800100428DFD3E7
:10147000062D11D30020BDF80010625C491CADF8A8
:101480000010102801D239180A71401CC0B214286B
:10149000F1D387F8139001E087F8049003203875A2
:1014A000092D0BD3BDF80000B04207D2215C401CCF
:1014B000ADF80000084601F05FFB387508F1010047
:1014C00000F0FF08B8F1C80FABD3A64FC7F81490CF
:1014D000C7F81C90C7F81890C7F82090BDF8000016
:1014E0001030B0421DD807F114036A463146204639
:1014F000FFF78CFD07F11C036A4631462046FFF7D3
:1015000085FD07F118036A4631462046FFF77EFD48
:1015100007F120036A4631462046FFF777FDF86958
:1015200018B9BAF8660000B1F861386A18B9BAF8A3
:10153000640000B138628C4FDFF82882C7F8009051
:10154000C7F8049008F18008C7F80890C8F84490DC
:10155000BDF800000C30B04213D83B466A46314615
:101560002046FFF753FD3B1D6A4631462046FFF7F4
:101570004DFD07F108036A4631462046FFF746FD58
:1015800009E0D8F8280030B17849884200D90846E7
:1015900064214843386072B6002073490C3101F170
:1015A000240251F8203042F82030401CC0B20328F9
:1015B000F7D362B6386801907A6800238018BF6854
:1015C00043EB03019146C01959416422FEF7F8FD2F
:1015D0006449803188626421B7FBF1F3B9FBF1F211
:1015E0000198B0FBF1F1624814F0F3F9042D0BD32C
:1015F000BDF80000001DB04206D85A4B6A46C433FD
:1016000031462046FFF702FDDFF8588142F210779D
:1016100008F1D008DFF85091A8F80070A8F802701F
:101620000020A9F16009A8F80470C9F80000C9F801
:101630000400C9F80800052D7ED3BDF8000018305D
:10164000B04247D801AB6A4631462046FFF7DEFC80
:1016500002AB6A4631462046FFF7D8FC03AB6A4628
:1016600031462046FFF7D2FC4FF480320199501EDC
:10167000914200D301900299914200D302900399C4
:10168000914200D30390019800B90197029800B9E4
:101690000297039800B903970199A8F800100299DE
:1016A000A8F802100399304BA8F80410603B6A4672
:1016B00031462046FFF7AAFC09F104036A46314689
:1016C0002046FFF7A3FC284B6A46583B314620468C
:1016D000FFF79CFC072D38D3BDF800001030B04256
:1016E00033D8204B6A469C3331462046FFF78EFCA8
:1016F00001AB6A4631462046FFF788FC194B6A4623
:10170000C03331462046FFF781FC02AB6A463146C2
:101710002046FFF77BFC134801998030C163029893
:10172000420E8AF80D20C0F343528AF80E20C0F30F
:1017300004428AF80F2000E007E0C0F3C4228AF8D0
:101740001020C0F345108AF8110001218BF85C10BD
:10175000BAF86630BAF864203146012000F0F6F994
:10176000BDE8FF9F9802002084EA0020285C8F02D9
:10177000186100202DE9F04F594F91B097F85D00A6
:1017800000287DD197F84200002879D0012087F801
:101790005D0097F85C00002873D042208DF80000AF
:1017A00020208DF804006F208DF805006B208DF847
:1017B000060020208DF807004FF0410875208DF8B5
:1017C00001804FF0530B8DF808008DF802B04FF0F8
:1017D00045093D2507F1800A6C468DF803908DF888
:1017E000095000260A216423BAF86420204612F02A
:1017F00081FE20212154401CC0B276212154401C7E
:10180000C0B264232554401CC1B2BAF866206846B1
:1018100012F070FE2654684601F0B4FA42208DF8AA
:10182000000020208DF804006C208DF805008DF854
:10183000018020208DF808008DF802B06F208DF80F
:1018400003904FF073088DF809008DF806804FF073
:1018500074098DF807908DF80A500B21642317F84E
:10186000552F684612F046FE20212154401CC0B27C
:1018700004F80090401CC0B22554401CC1B201E0E5
:101880002BE027E064237A78684612F033FE2021AB
:101890002154401CC0B2642304F80080401CC0B234
:1018A0002554401CC1B2BA78684612F023FE2021AC
:1018B0002154401CC0B272212154401CC0B2642388
:1018C0002554401CC1B2FA78684612F013FE265423
:1018D000684600E003A001F055FA11B0BDE8F08FB2
:1018E0001800002042415345206E6F6E65000000D5
:1018F00030B520B11AB11488A51C8D4201D9002041
:1019000030BD03552044190A41701580012030BDB7
:1019100030B520B11AB11488251D8D4201D900209F
:1019200030BD03552044190A4170190C8170190EFD
:10193000C1701580012030BD0349002081F84A00A4
:101940004FF4FA7000F00CB8180000200349012091
:1019500081F84A004FF4FA7000F002B81800002035
:1019600030B4B0F5FA7F17D20C4901F5C07391F885
:101970005B4001F520720CB91C6BD460012481F826
:101980005B401B6B1844906091F84200002803D024
:1019900030BC03A001F0F6B930BC7047180000203D
:1019A0004346472073617665207265710000000030
:1019B00070B50948002680F84A603046FFF7D0FF2E
:1019C000054D80356C7804B16E7000F007F8002C7E
:1019D00001D00120687070BD180000202DE9F04191
:1019E000244E96F85B00002810D006F5C070006BFE
:1019F00006F52075A968411AB1F1004F06D2A5F588
:101A00000071497821B100F57A70A860BDE8F081D5
:101A10000024194A2046115C302901D3303900E0F6
:101A2000002101F00F01830099400C43401C06285F
:101A3000F1D384F05A374FF400411048FFF7DAF839
:101A40000300E3D00D4A3946204605F029F8002866
:101A5000DCD0002086F85B00E86096F8420020B1F8
:101A6000BDE8F04106A001F08DB9012086F85E00C6
:101A7000CCE70000180000206E030020D0300010DA
:101A800043464720736176656400000003490020E7
:101A900081F87E000249087070470000180000209D
:101AA00030EA00200449054A002081F872001070D5
:101AB00081F868007047000018000020A4E80020AA
:101AC000024610B5481E0C2801D31F2010BD064841
:101AD0000229084410F8014C04D1104606F043FCDA
:101AE00000B11D24204610BD517D01082DE9F041B3
:101AF00092B007461E4614460D466846DDF86080E3
:101B0000FEF7BCFE18B948216846FEF7A3FB022F7A
:101B100016D0039505940C4830F8641F0691408850
:101B2000079000200C905FEA080000D0012040EAF6
:101B3000460009906846FEF7E1FE12B0BDE8F0816C
:101B400002950494E7E7000098000020F0B593B0F8
:101B500007461C4615460E466846FEF78FFE18B926
:101B600048216846FEF776FBCDE90E54CDE90C76A8
:101B70006846FEF7C3FE13B0F0BD000030B593B069
:101B800004460D466846FEF779FE18B948216846B6
:101B9000FEF760FB0648CDE9084530F8641F069162
:101BA000408807906846FEF7A9FE13B030BD0000DC
:101BB00098000020F0B593B06846FEF75FFE00285D
:101BC00061D032A24021324813F090F83048FEF73D
:101BD0006AFB2F4CC0B24C212154401CC0B23D25A1
:101BE0002554401CC1B20A2320460C9A12F082FCF4
:101BF00020262654401CC0B255212154401CC0B29E
:101C00004FF47A772554401CC1B23B4620460E9AC9
:101C100012F070FC2654401CC0B256212154401CC6
:101C2000C0B23B462554401CC1B220460F9A12F068
:101C300061FC2654401CC0B250212154401CC0B24B
:101C400042F210732554401CC1B22046089A12F08B
:101C500051FC2654401CC0B257212154401CC0B234
:101C600064232554401CC1B220460B9A12F042FC5A
:101C7000002121540748A0F58071C464096B41F22A
:101C800070721144816413B0F0BD00004442200022
:101C9000C1E800209802002030B593B004460D46FC
:101CA0006846FEF7EBFD18B948216846FEF7D2FA00
:101CB0006846CDE90A45FEF721FE13B030BD0000AD
:101CC00030B5A1B005460D4B0DA28021684613F03A
:101CD00027FC00280FD00F4C94F8290028B968463B
:101CE00003F09AF9012084F829000B48006B0A4997
:101CF00028448031C86321B030BD00006E0300204D
:101D0000616261636F6E74726F6C2F726573705F66
:101D100044422F00180000209801002030B5134DD8
:101D2000A1B095F8291000291ED005F50074E16BCB
:101D3000411AB1F1004F17D295F8591095F85A2071
:101D4000114303D042F6E06108440CE0084B094A15
:101D50008021684613F0E4FB10B1684603F0DCF91B
:101D6000002085F82900E06321B030BD1800002074
:101D70006E030020BC560008054991F8291000297F
:101D800005D00449096B084402498031C863704793
:101D900018000020980100202DE9FF5F99468B462E
:101DA00049454FF000003FD1214A0021904611548F
:101DB000401C80B2C828F9D3002732E04FF0000A57
:101DC000544627E018F8040010BBC7EBC70000EB2F
:101DD000400100980E18C4EBC40000EB40010298CB
:101DE00001EB000514D09DB12946304612F099FA56
:101DF00070B13079297988420AD1691D701D12F0BD
:101E00005AF800B1012018B1012108F8041006E0C9
:101E1000641CA4B24C45D5D35FEA0A0004D07F1CF1
:101E2000BFB25F45CAD3012004B0BDE8F09F0000F7
:101E3000342000202DE9FF5F9A46019850454FF06D
:101E4000000047D1254A002191461154401C80B220
:101E5000C828F9D3002038E04FF0000B5C462CE096
:101E600019F8040038BBC8EBC80000EB400100982B
:101E70000E18C4EBC40000EB4001029801EB000512
:101E800019D0C5B12946304612F04BFA98B1307DD1
:101E900000F072FE0746287D00F06EFE87420AD1F0
:101EA000291D301D12F007F800B1012018B10121E1
:101EB00009F8041006E0641CA4B25445D0D35FEACC
:101EC0000B0007D008F1010080B2019980468842DA
:101ED000C2D3012004B0BDE8F09F0000FC20002028
:101EE0002DE9FF5FDFF85CB2DDF83C9002281E466A
:101EF00088464FF0000A484603D000287ED0924D15
:101F000094E0002801D0914D00E0914D03D08D4C1C
:101F1000A4F1980402E08B4CA4F19C044FF000075C
:101F200027E0C7EBC70000EB40002844414612F011
:101F3000F8F9E0B1C7EBC70000EB40004419029983
:101F40002171B9F1000F04D0DBF830107D488030EA
:101F50004167002E09D03078002806D0601D324637
:101F6000102112F0C3FE84F814A0BDE8FF9F7F1C6F
:101F7000BFB22088B842D4D880B2C828F5D2C0EB0E
:101F8000C00000EB400098F800102954208898F811
:101F90000110C0EBC00000EB4000284457464170E0
:101FA000208898F80210C0EBC00000EB40002844E5
:101FB0008170208898F80310C0EBC00000EB40004F
:101FC0002844C17020880299C0EBC00000EB40009B
:101FD000284401712088C0EBC00000EB4000284479
:101FE00080F805A0AEB1307898B120883246C0EBB9
:101FF000C00000EB40002844102100E015E0401D27
:1020000012F074FE2088C0EBC00000EB40002844B2
:1020100007752088401C2080B9F1000FA5D0DBF89F
:1020200030104848803041679FE74A4D02D0454C08
:10203000963C01E0434C9A3C002727E0C7EBC700E1
:1020400000EB40002844414612F06BF9E0B1B9F1D1
:10205000000F03D0DBF830103F4801600E9800F00D
:102060008BFDC7EBC70101EB41014C19002E207518
:10207000DAD030780028D7D0201D3246102112F057
:1020800035FE84F813A070E77F1CBFB22088B842E9
:10209000D4D880B2C828C7D2C0EBC00000EB400043
:1020A00098F800102954208898F80110C0EBC0005F
:1020B00000EB4000284457464170208898F80210F1
:1020C000C0EBC00000EB400028448170208898F8E5
:1020D0000310C0EBC00000EB40002844C170208812
:1020E000C0EBC00000EB4000284480F804A00E982C
:1020F00000F042FD2188C1EBC10101EB41012944FF
:1021000008759EB1307888B120883246C0EBC00097
:1021100000EB400028441021001D12F0E7FD20884C
:10212000C0EBC00000EB40002844C7742088401C6E
:102130002080B9F1000FA6D0DBF83010064801600E
:1021400013E7000098010020681000100000001044
:10215000D4C700203CD80020980200202DE9F34F7E
:10216000B7B0379800287DD0389800287AD000245E
:102170008DF8B4400146F5A2379806F0C7FA2890CA
:1021800020B128AB10222DA906F0F5FB2994DDE93A
:102190003701EFA206F0BAFA289018B128AA29A9A7
:1021A00006F05AFD2998012801D002285AD1DFF8FB
:1021B000A8930027BA46B9F864103591B9F86600BB
:1021C000349001203190DDE93701E4A206F09EFA57
:1021D000289030B128AA2BA906F055FB08B19DF82C
:1021E000ACA0DDE93701DFA206F090FA289038B103
:1021F00028AA2BA906F047FB10B19DF8AC0031903E
:10220000DDE937010026D8A206F080FA289050B305
:1022100033AA2BA9339006F036FB10B19DF8AC60C1
:1022200050E08DF8004033AB60226946289806F0F4
:10223000A2FBC0B19DF80000A8B1CEA1684611F084
:102240004EFE80B9CCA1684611F049FE58B9522023
:102250008DF86000582001268DF8610020208DF84F
:10226000620001E0C8E02DE044218DF863104221B6
:102270008DF864108DF8650063218DF866106F226B
:102280008DF867206E228DF868208DF869106C211A
:102290008DF86A103A218DF86C008DF86B100D20C6
:1022A0000021EC4618AD03E02B54491C89B2D0B292
:1022B0001CF8013013B1421C402AF5D32C54284697
:1022C00000F060FD3294DDE93701ADA206F01EFAA0
:1022D000289018B128AA32A906F0BEFC2A94DDE99C
:1022E0003701AAA206F012FA289018B128AA2AA942
:1022F00006F0B2FC2C94DDE93701A346A5A206F056
:1023000005FA289018B128AA2CA906F0A5FC319846
:10231000002871D0A24A29990025A04B0229A2F5D4
:10232000C0701CD090F85A4094B1D2F830C000F57B
:102330000074E46FACEB04049C4209D380F85AB0FB
:1023400000F52074A9F86AB0C4F804B0C4F800B06D
:10235000BAF1000F47D090F85A308BB327E090F8CD
:1023600059408CB1D2F830C08D4C8034D4F8708094
:10237000ACEB080C9C4507D380F859B0A9F868B0BD
:10238000C4F878B0C4F874B0BAF1000F19D090F85E
:10239000593063B9012380F85930136B804880307D
:1023A0000367136B4367A9F868B0C0F878B02C983E
:1023B000012518B102291BD07A4B5860EEB15CE0C0
:1023C00002E090F8590010E0012380F85A30136BB6
:1023D00073488030C367106B724B1860A9F86AB0FD
:1023E000C3F804B0E3E790F85A000028DFD1E5E72E
:1023F0006B4B80339867E1E793E245B3022905D040
:102400006848406807D1B9F8684006E0644800F1C0
:102410008000806FF6E7B9F86A4004D1604B03F1A1
:1024200080035B6F01E05F4B1B68DFF874C10CF148
:10243000800C02D1DCF870C001E0DCF87CC038B15F
:10244000844203D2DDF8A880804501D3012614E040
:10245000BAF1000F03D010B92A980028F6D064B161
:102460005BB1106B41F28834A0EB0C00A04204D3A6
:10247000106BC01AB0F5FA5FE8D205B10EB3329A0C
:10248000FAB12C9800B92A98012902D002290AD061
:1024900014E044494B69934202D1CB6983420DD089
:1024A0004A61C86108E03F498B69934202D10B6AD7
:1024B000834203D08A610862012700E00FB1FEF772
:1024C00093F901A80090DDE9370106AB36A206F0CA
:1024D000E1F8D0B3069C10E0204606F0EBFB0400C8
:1024E00074D00198844271D220785D286ED060B398
:1024F0002C2802D0222802D015E0641C62E007AB31
:10250000102202A9204606F036FA60B1694602A8F8
:102510000DF096FC28B129982A46C0B2694600F011
:1025200047FB079C4EE020785B2842D102AB6A460D
:102530002046019906F0D8FAC0B329982A46C0B2BD
:10254000694600F035FB029C3CE03FE06D7367009C
:102550007469706F00000000980000207475646F4B
:102560000000000061747400636F6E636C756964D1
:102570006F0000003000000066616C7365000000B1
:1025800064617461686F7261000000007174745F4F
:10259000720000007174745F61000000C0D401001B
:1025A000980100209802002072656D0001E0641C13
:1025B00000E001998C4205D2207818B12C2801D076
:1025C0005D28F4D114B10198844285D311A80090FC
:1025D000DDE9370112ABD4A206F05CF8E8B312983B
:1025E00000F1010803AB04AA4046119906F0CCF8AB
:1025F00098B30399CDA28846049806F087F8029014
:1026000010B10399884207D3DDE90310C8A206F090
:102610007DF802900028E5D003998842E2D206F0C6
:1026200049FB029001780FAB222904D010AA03992C
:1026300006F05AFA09E0182209A906F09CF90028C8
:10264000D0D010A909A80DF0FBFB0028CAD00020AB
:102650000B900320B8A2019000E06AE0DDE90310CE
:1026600006F054F8029038B102AA2BA906F00BF933
:1026700010B19DF8AC000B90299801283ED1CDF8FF
:1026800000B0DDE903105C46ADA206F03FF8A8B348
:1026900006F010FB90B30178222905D00FAA6946F5
:1026A00006F0DAFA28BB29E08DF824400CAB0822AA
:1026B00009A906F060F908B300944FF0010C00205E
:1026C0006FF02F0409AB08E0009A401C02EB820275
:1026D00004EB4202114480B20091195CA1F1300276
:1026E000092AF1D950B1BCF1000F07D011F0FF0F4A
:1026F00004D10098C0B200F03FFA01908DF814B0F8
:10270000DDE903108FA206F001F8029030B10FABA3
:10271000102205A906F02FF98DF823B00198CDE914
:102720000005299805ABC0B210A90B9AFFF7D8FB9A
:1027300058E705B1F6B30024EDB3E6B329980228B3
:1027400013D0DFF80882B9F86A100120D8F8042005
:1027500000F0B8FA80B3B9F866307D4AB9F86A106B
:102760007C48FFF767FB40B363E0DFF8E081B9F82E
:102770006810A8F180080220D8F8782000F0A2FAAA
:1027800018B3B9F86430744AB9F868107348FFF7A1
:1027900003FB18BB0024C4EBC400704900EB4000ED
:1027A0006D4A014410441522FDF73BFD641CE4B260
:1027B000C82C03E089E04AE032E01BE0EBD3B9F833
:1027C0006810A9F86410012408E0FEF70DF86448C9
:1027D00090F8420010B163A000F0D4FA60485A4665
:1027E0002B4680F859B0C8F878B00096B9F8641054
:1027F000022029E00024C4EBC400564900EB40004D
:10280000534A014410441522FDF70BFD641CE4B249
:10281000C82CF0D3B9F86A10A9F86610012408E0B2
:10282000FDF7E2FF4E4890F8420010B151A000F0D1
:10283000A9FA4B485A462B4680F85AB0C8F804B05B
:102840000096B9F866100120FFF750F900E0012466
:102850002A992C9808432CD1329850B329980228F1
:1028600013D0B9F86600DFF8E48011D1D8F8201051
:10287000814204D00127C8F82000FDF7B5FF0221EE
:10288000D8F81830D8F8202010E0B9F86400EAE74A
:10289000D8F81C10814204D00127C8F81C00FDF7AD
:1028A000A3FFD8F81430D8F81C200121354813F0C4
:1028B000B9F8299800220096C0B22B461146FFF7BE
:1028C00015F907B90CB1FFF737F8254890F8420021
:1028D00048B12C992A98CDE9000152462DA9319B87
:1028E000299800F0AFFA2A992C98084340EA0A0088
:1028F0003043299802D0012809D00FE0022808D0DF
:1029000001280ED1B9F866103498814209D01EA072
:1029100005E0B9F864103598814202D020A000F09B
:1029200031FA39B0BDE8F08F616469007461670005
:10293000746167340000000061646D696E0000001E
:10294000747000006E6F6D6500000000980200203A
:102950003CD8002068100010D4C7002000000010F0
:1029600018000020444220555352206B65657020AA
:102970006F6C6400444220564549206B65657020A9
:102980006F6C64001861002056454943554C4F5305
:1029900020415455414C495A41444F5300000000D6
:1029A0005553554152494F5320415455414C495A72
:1029B00041444F53000000002DE9F041064611F05C
:1029C000C4FC88BB00F0B0F9194D88B10024194F40
:1029D0000AE0C4EBC40000EB40003844314611F07B
:1029E000A0FC88B9641CA4B2B5F86A008442F0D394
:1029F0000024114F14E0C4EBC40000EB4000384445
:102A0000314611F08EFC48B1C4EBC40000EB40002D
:102A10003844007DBDE8F04100F0AEB8641CA4B2BB
:102A2000B5F866008442E6D30320BDE8F0810000DB
:102A300098000020681000103CD800202DE9F047D5
:102A4000814615460E004FF0000000D0307005B1F1
:102A5000286000F04BF9DFF88480F8B10024204FA3
:102A600018E0C4EBC40000EB40003844494611F0C4
:102A700058FCF8B90CE045B1C4EBC40000EB4000D1
:102A80003844417901B3401D28600120BDE8F0873A
:102A9000641CA4B2B8F868008442E2D30024114F49
:102AA00016E0C4EBC40000EB40003844494611F086
:102AB00038FC58B1002EDED0C4EBC40000EB40005F
:102AC000384400793070D6E70020DDE7641CA4B2FA
:102AD000B8F864008442E4D30020D7E798000020CF
:102AE00000000010D4C700202DE9F0410D00804601
:102AF00001D00020286000F017F91C4EF0B100242E
:102B00001B4F17E0C4EBC40000EB400038444146C3
:102B100011F007FC60B145B1C4EBC40000EB40000C
:102B200038440179F9B1001D28600120BDE8F08129
:102B3000641CA4B2B6F86A008442E3D300240D4FAB
:102B40000BE0C4EBC40000EB40003844414611F0F8
:102B5000E8FB0028DFD1641CA4B2B6F8660084420A
:102B6000EFD30020E2E70020DEE70000980000201D
:102B7000681000103CD80020411E022900D9032013
:102B8000704730B500228C5C835C303CE5B20A2C87
:102B900006D2A3F13004092C00D8E3B2AB4201D035
:102BA000002030BD521CD2B2042AECD3012030BD2B
:102BB0002DE9F047DFF8F49017468846022803D045
:102BC000002F3ED03A4E3DE0002F01D0394E00E0BC
:102BD000394E03D0354DA5F1980502E0334DA5F1EE
:102BE0009C054FF0000428E0C4EBC40000EB40005B
:102BF0003044414611F095FB60B91CE0C4EBC400C1
:102C000000EB4000304400F115011522FDF709FBEF
:102C10001FFA88F4288804F101084045EED880B2F4
:102C2000401E2880002F04D0D9F830001F49803181
:102C30004867BDE8F087641CA4B22888A042D3D8B6
:102C4000F7E71E4E02D0194D963D01E0174D9A3D13
:102C5000002426E0C4EBC40000EB400030444146B1
:102C600011F05FFB60B91AE0C4EBC40000EB400058
:102C7000304400F115011522FDF7D3FA1FFA88F44C
:102C8000288804F101084045EED880B2401E288013
:102C9000002FCED0D9F8300009490860C9E7641C7C
:102CA000A4B22888A042D5D8C3E70000980100202C
:102CB0006810001000000010D4C700203CD800208D
:102CC00098020020084B022809D0B3F8660020B112
:102CD000814202D232B1914204D301207047B3F84D
:102CE0006400F4E700207047980000200C4890F83A
:102CF000591089B100F5C071096B00F50072136FAE
:102D0000C91A084B994207D3002100F1800380F8CB
:102D10005910A3F86810916790F8590070470000A7
:102D200018000020C0D401000D4890F85A1099B145
:102D300000F5C071096B00F50072D26F891A094A5B
:102D4000914209D3002100F1800280F85A10A2F8C4
:102D50006A1000F52072516090F85A007047000028
:102D600018000020C0D401000449054A0968B1FBDD
:102D7000F2F1002901D0B0FBF1F07047B40300205C
:102D800040420F00F0B52D4C91B094F8421000294C
:102D900051D004F5C071096B4FF47A72B1FBF2F2B5
:102DA0003C23B2FBF3F16425B1FBF5F605FB1611EC
:102DB000B2FBF3F503FB15220A23B1FBF3F5B1FBDC
:102DC000F3F6303503FB16118DF8005030318DF8D5
:102DD00001103A218DF80210B2FBF3F130318DF879
:102DE0000310B2FBF3F103FB112130318DF8041015
:102DF000202101258DF805106F46062150B10022D3
:102E000003E07E54521C92B2D9B2865C16B14B1CC0
:102E1000402BF6D300207854094814F8441F3A4652
:102E200000EB8110402111F061FF2078401C00F080
:102E30003F002070657011B0F0BD00001800002048
:102E400094B200202DE9F04F91B0074644208DF850
:102E5000000042202025DDF868E08DF801009B4647
:102E60004FF000096C468DF80250022F17D0562003
:102E70008DF8030045208DF8040049208DF80500E9
:102E800006203D2611B30B7803B38DF806506D2054
:102E90008DF8070009208DF8086000230CE055200C
:102EA00053238DF803008DF80430E7E704F8008021
:102EB0005B1C9BB20CF0FF0011F80380B8F1000F0F
:102EC00004D000F1010CBCF1400FEFD3811D4FF095
:102ED00061084FF0740A40292BD22554401CC0B21F
:102EE00066212154401CC0B22654401CC0B20AB115
:102EF000312100E030212154401CC0B22554401C37
:102F0000C0B204F80080401CC0B204F800A0401C0D
:102F1000C0B204F800A0401CC0B22654401CC0B28D
:102F2000BBF1000F01D0312100E030212154401CC1
:102F3000C0B200F10C014FF47A7B40291DD2255418
:102F4000401CC0B272212154401CC0B25B462654C2
:102F5000401CC1B27246204611F0CCFA2554401CE8
:102F6000C0B25B4604F80080401CC0B22654401C2E
:102F7000C1B268461B9A11F0BDFA00F10A0140295E
:102F800012D22554401CC0B204F800A0401CC0B2AC
:102F90002654401CC1B20A48022F0DD0B0F866205A
:102FA0005B46684611F0A6FA04F800906846FFF701
:102FB000E9FE11B0BDE8F08FB0F86420F0E7000042
:102FC00098000020F0B5204B91B093F84230002BD0
:102FD00038D0002836D0002934D000278DF8007072
:102FE0003B463C466E4604E006F803C0641CA4B2AF
:102FF000EBB210F804C0BCF1000F02D05D1C402DF4
:10300000F2D32020F0545B1CD8B2002303E03554E7
:103010005B1C9BB2E0B2CD5C1DB1441C402CF6D3CE
:1030200005E0411C402902D23D233354C8B20AB105
:10303000312100E030213154401CC0B237543046B9
:10304000FFF7A0FE11B0F0BD18000020F0B5264B30
:1030500091B093F84230002B43D0002841D0002992
:103060003FD0002A3DD000268DF80060334634461C
:103070006D4604E005F803C0641CA4B2FBB210F86E
:1030800004C0BCF1000F02D05F1C402FF2D32020FF
:10309000E8545B1CD8B2002303E02F545B1C9BB2A6
:1030A000E0B2CF5C17B1441C402CF6D3811C402900
:1030B00003D23D212954401CC0B2002308E05B1C10
:1030C0009BB20D2901D00A2900D120212954E0B258
:1030D000D15C11B1441C402CF1D32E542846FFF78B
:1030E00051FE11B0F0BD000018000020F0B5224CD8
:1030F00091B094F84240002C3CD000283AD00029EE
:1031000038D000278DF800703C463D466E4605E0FD
:1031100006F804E06D1CADB20CF0FF0410F805E0F9
:10312000BEF1000F04D004F1010CBCF1400FEFD34D
:1031300020203055641CE0B2002404E006F800C0F2
:10314000641CA4B2E8B211F804C0BCF1000F03D0B3
:10315000451C402DF2D305E0411C402902D23D24FC
:103160003454C8B20146304611F0C4F937546846A9
:10317000FFF708FE11B0F0BD180000202DE9F74F51
:10318000FF4C05469AB094F84200904604F1800B3B
:1031900080B310F041FD814610F05AF8034694F8D0
:1031A000460000B3F74800210A464FF6FF7600F5C7
:1031B000C06700EB811C8CF8002027F81160491CC7
:1031C000C9B21829F5D3A270ABF81220ABF81420BD
:1031D000ED48ABF81620ABF81820C26084F8462002
:1031E000012084F8450000201190AB4216D9581BED
:1031F00080B214E0FFE7A07800280ED0CDF8008060
:10320000BBF81830BBF81620BBF81410BBF812003E
:103210000FF02AFF0020A0706070B7E0002013902C
:103220006078E0B9D74E002003464FF6FF7106F5EF
:10323000C06206EB80173B7022F81010401CC0B231
:103240001828F6D3A370ABF81230ABF81430CE4880
:10325000ABF81630ABF81830C3600120607094F8FA
:103260004200002873D094F8430000286FD01398D0
:1032700000286BD0C0F3C7001290182801D918207D
:1032800012900621B9FBF1F000F0FF0ABAF13F0FEE
:1032900001D94FF03F0AFF220021B42010F0EAFAD2
:1032A000FF2217901146002010F0E4FAFF2116903B
:1032B0000022084610F0DEFA159008225321FF2064
:1032C00010F0D8FA149012980026052801D9401F52
:1032D000C6B2AB48807880B1BBF81220119958462D
:1032E0008A420AD1818AA94207D1C28A4A4504D1B9
:1032F000BBF81810139881424ED0CDF800804A4692
:103300002946139B11980FF0AFFE9E4A00200146FC
:103310004FF6FF7302F5C06402EB8017397024F892
:103320001030401CC0B21828F6D3954901238B7089
:10333000119AABF81220ABF81450ABF81690139A10
:10334000ABF8182081F845302BE000E021E0A078B0
:10335000E0B1CDF80080BBF81830BBF81620BBF800
:103360001410BBF812000FF07FFE0021854AA170F7
:1033700008464FF6FF7302F5C06502EB8016317008
:1033800025F81030401CC0B21828F6D3002084F86D
:1033900045001DB0BDE8F08F794890F84500002841
:1033A000F7D0794A02F18001D06818B10B6B181A76
:1033B000FA28EED3086BD060DDF848B0BBF1400FBF
:1033C00001D94FF0400B6E48002490F84410A1EB57
:1033D0000B0000F03F001990BCE119986B492044A4
:1033E00000F03F0001EB8013002001AA02E011541D
:1033F000401CC0B2195C09B15045F8D3202150459A
:1034000003D21154401CC0B2F9E70021115460A14D
:1034100010461B9F10F024FD10BB5FA101A810F007
:103420001FFDE8B95EA101A810F01AFDC0B95EA1A8
:1034300001A810F015FD98B95EA101A810F010FDCB
:1034400070B95EA101A810F00BFD48B95EA101A8FA
:1034500010F006FD20B962A101A810F001FD08B12D
:10346000179F3BE064A101A810F0FAFC70B965A1B8
:1034700001A810F0F5FC48B965A101A810F0F0FC16
:1034800020B964A101A810F0EBFC08B1169F25E05B
:1034900062A101A810F0E4FC48B963A101A810F0F2
:1034A000DFFC20B964A101A810F0DAFC08B1159F77
:1034B00014E063A101A810F0D3FC70B962A101A8C7
:1034C00010F0CEFC48B964A101A810F0C9FC20B9E5
:1034D00065A101A810F0C4FC00B1149F64A101A86B
:1034E00010F0BEFC20B968A101A810F0B9FC18B119
:1034F0000022FF21104640E069A101A810F0B0FCB5
:103500000028F5D169A101A810F0AAFC0028EFD18C
:1035100068A101A810F0A4FC60BB68A101A810F08C
:103520009FFC38BB67A101A810F09AFC10BB67A1F3
:1035300001A810F095FCE8B966A101A810F090FC74
:10354000C0B967A101A810F08BFC98B966A101A8C9
:1035500010F086FC70B966A101A810F081FC48B992
:1035600066A101A810F07CFC20B966A101A810F0AA
:1035700077FC18B100221146FF20C7E0C9E0000027
:1035800018000020C42100201801002094B200205F
:1035900072782064620000006462202D2D2D2D00C1
:1035A0002064622000000000726573705F64622F07
:1035B00000000000636F6E735F646200636F6E6390
:1035C0006C7569646F000000636164617374726F8D
:1035D00073206465207573756172696F73000000F4
:1035E000636164617374726F7320646520766569CA
:1035F00063756C6F73000000727820616261737490
:1036000000000000726573705F61626173742F0067
:10361000656E765F6162617374000000727820618C
:10362000636573736F000000726573705F6163653B
:1036300073736F2F000000002061636573736F0068
:103640007278206C73000000726573705F6C697330
:103650007461732F0000000020726573705F6C69E5
:103660007374617300000000206C697374617300EF
:1036700076656963756C6F7320617475616C697AC6
:1036800061646F73000000007573756172696F7318
:1036900020617475616C697A61646F730000000069
:1036A000656E76696F206F6B00000000206F6B3DC8
:1036B00031000000206F6B3D300000002066616922
:1036C0006C000000206572726F000000206F66665B
:1036D0000000000020696E76616C696400000000E3
:1036E000206E616F20000000206F766600000000F1
:1036F0006F766572666C6F770000000020746D6FE6
:103700000000000074696D656F75740010F0B2F808
:1037100007466A4801A900EB8410189010F0CBFB13
:1037200020B1674830F81400B84211D005EBC4004E
:1037300081B23B4601AACDF8008011980FF09EFAA5
:1037400001AA4021189811F0D1FA5D4820F81470B0
:10375000641CE4B25C45FFF440AE0027344681E0CF
:10376000052F7DD205EBC40080B20FF2581B0190EB
:10377000701CC0B2DDF85CA0A04203D10FF2541B54
:10378000169816E0B01CC0B2A04203D10FF2541B31
:1037900015980EE0F01CC0B2A04203D10FF24C1BF2
:1037A000149806E0301DC0B2A04203D10FF2441BB2
:1037B0001B988246584611F0EFFA0021049100EB65
:1037C0004001022202EB41024A4506D2A0EB8001F1
:1037D00009EB4100801E80B20490394807EB470195
:1037E000303000EBC1005946039010F064FB30B953
:1037F0003348A83030F81710049881422CD004992F
:103800001198084480B20290022802D9801E80B22A
:1038100000E0119811994944091A8AB21399294470
:103820008BB201998B4205D90823CDF8008001990C
:103830000FF01AFCCDF80080DDE9011053465A461E
:103840000FF01CFA5A461821039811F04FFA1C4940
:103850000498A83121F817007F1CFFB2641C00E017
:1038600004E0E4B212988442FFF47AAF044613985D
:103870004FF0000A284487B2DFF844B018E00F4840
:1038800000EB8416307888B105EBC40081B28F421A
:1038900006D908234A46CDF8008011980FF0E4FBC2
:1038A00086F800A04FF6FF712BF81410641CE4B2E8
:1038B000182CE4D3114981F845A06AE5C421002001
:1038C000C427002042616E636F20646520446164F8
:1038D0006F73000041626173746563696D656E7436
:1038E0006F00000041636573736F00004C6973746F
:1038F0006173000053697374656D610018000020E6
:1039000000B101200A4A002882F842000FD10021AC
:1039100002F8431F01209170D0705170054A08468B
:1039200002EB8013401CC0B219704028F8D37047D6
:103930001800002094B2002003490A6B0B6B9B1AFD
:103940008342FBD370470000980100200048704775
:103950006E03002070B525A20721264811F0C6F994
:1039600025490868254A0025224C904219D14A6809
:10397000886882F05A31814213D1012300208100EE
:1039800022FA01F101F00F01092901D9002305E014
:1039900030312154401CC0B20628F0D3A571002B51
:1039A00022D102200DF024F8A621B1EB106F12D124
:1039B000012300218A0020FA02F202F00F02092AF4
:1039C00001D9002305E030326254491CC9B20629EE
:1039D000F0D3A57123B905A20721064811F086F995
:1039E0000749012081F85F0070BD0000313131319D
:1039F000313100006E03002000000E084C52455388
:103A00001800002070B50024134A2046115C3029AC
:103A100001D3303900E0002101F00F01830099400B
:103A20000C43401C0628F1D30C4884F05A35016839
:103A300040680B4A914201D1A0420CD04FF40041A2
:103A40000848FDF7D7F8034629462046BDE87040F0
:103A5000044A03F025B870BD6E03002000000E0874
:103A60004C524553D030001070B5234B5A78DB7858
:103A70001A43214B803B93F8494022434FF0000406
:103A800002D003F8474F35E093F83D2093F8675094
:103A90002A43F6D1194A55693DB9194D194E2D6879
:103AA000B5FBF6F5184E75435561134A803AA842A6
:103AB00092F8482005D2002A02D0521E83F84820EE
:103AC00070BD0E488030806E20B1081A43F69821F0
:103AD0008842F5D393F847000028F1D1FF2A02D29B
:103AE000521C83F8482093F848000228E8D30120AC
:103AF00003F8470F5C7070BD98000020980100200B
:103B0000B403002040420F00C0D401002DE9FF4F54
:103B100089B001462D482D4CDDE91A654278C07800
:103B2000803C024394F84900DDE918B7DDE91D98AF
:103B3000DDF870A002434FF0000005D194F83D205D
:103B400094F867301A4305D004F8470F60700DB041
:103B5000BDE8F08F94F84720002AF8D084F8470099
:103B600084F848001A48293481661A480FF050FF3B
:103B700002200FF053FF0FF071FB0B980FF0ACFA1F
:103B80000921384610F0D0FC1021304610F0CCFC52
:103B90000921284610F0C8FC01206077E07504F880
:103BA000030CA07504F8120CCDE906981799CDE91D
:103BB000045ACDE90276CDE9001B0DF1280C169BC5
:103BC0009CE8070006F0B2FCC1E700009800002066
:103BD00018020020393900082DE9F04FBDB01C460D
:103BE00092460D460646FE484FF0000B90F84010F6
:103BF00019B180F814B080F840B08046807F50B191
:103C0000F848016B8030006B081A4EF6602188423C
:103C100001D988F81EB00FF0FFFF07460022DFF839
:103C2000C8931146FF20CDF89CA00FF023FE002280
:103C30003290FF2110460FF01DFEFF2234901146F6
:103C400000200FF017FEFF213390002208460FF0EE
:103C500011FEFF223A90002110460FF00BFE399022
:103C600000228021FF200FF005FE3890082253210A
:103C7000FF200FF0FFFD3B90D9484FF4487A017DBB
:103C80007019359069B1D6488030B0F84610B94205
:103C900007D1B0F84810B14203D1B0F84A00A842A9
:103CA00045D05D23524631460020CDF800900EF0FD
:103CB00083FF3598009481B202233A4600200FF02A
:103CC000D3F9CA495846CA4A81F800B0603181F830
:103CD00000B0603181F800B0603181F800B020316F
:103CE00081F800B0203181F800B0203181F800B0B7
:103CF000203181F800B02031087020310870203167
:103D0000087060310870B6498031A1F84C0010701D
:103D10002832A1F84E001070B24AA1F85000D062CB
:103D2000AF480122027521F8467F4E808D805320D6
:103D30008DF8740065208DF8750072208DF876007E
:103D400069208DF8770061208DF878006C208DF85F
:103D500079003A208DF87A00A64920208DF87B0062
:103D60000978082089B10021DFF888820DF1740CF0
:103D700004E00CF80030491C89B2D0B218F80130C8
:103D80004BB1421C282AF4D305E02D208DF87C008D
:103D90008DF87D000A201DAA002111549448114677
:103DA000283010F088F84FF05D0BE0BB90482830C9
:103DB000017870191B38369009B38D48283010F0FF
:103DC000EBFF0146272800D92721002028AB20221D
:103DD00002E01A54401CC0B28842FAD300211954A0
:103DE000CDE902B104913698CDE9009A81B27C48C0
:103DF00028AA8030339BB0F850000EF067FF1DA852
:103E000010F0CAFF00EB40004000811C4FF000089A
:103E1000B94203D2381A801E1FFA80F80020CDE97B
:103E200002B0049000E012E0CDE9009A36981DAA95
:103E300081B24046339B0EF049FF6D481DAA2821F0
:103E4000283010F053FF66488030A0F85080644955
:103E500032983690887F002238B1CB7F2BB1664AEA
:103E600091F821300BB1349B36930DF1740C48B3AB
:103E70005B48C07F30B349208DF8740050208DF826
:103E800075003A208DF8760020208DF87700042008
:103E90008AB1117879B1002104E00CF80080491C46
:103EA00089B2D8B212F80180B8F1000F2CD0431CAF
:103EB000282BF2D328E02D208DF878008DF879009A
:103EC000062021E044208DF8740065208DF87500EF
:103ED00073218DF876106F218DF878106E238DF890
:103EE00079308DF87A0074208DF87C0061208DF88F
:103EF0007D00632264208DF87E008DF877208DF898
:103F00007B208DF87F100C2000220CF800206146E9
:103F100037480FF0D0FFE8BB3548017870191238E8
:103F2000379001B3324810F037FF0146272800D9F7
:103F30002721002028AB202202E01A54401CC0B2E6
:103F40008842FAD300211954CDE9009ACDE902B193
:103F50003798049181B2224828AA8030329BB0F869
:103F60004E000EF0B3FE1DA810F016FF00EB40004F
:103F70004000811C4FF00008B94203D2381A801E5D
:103F80001FFA80F80020CDE902B0CDE9009A049034
:103F9000379800E00EE081B21DAA4046369B0EF035
:103FA00095FE1DAA2821124810F0A0FE0C48803072
:103FB000A0F84E800A48104A90F82E00533220B1E3
:103FC00002F16000007800B1603256208DF8740074
:103FD00065208DF8750072208DF8760073200DE055
:103FE00018000020980100209C8E0408E74A002059
:103FF0006F4D00206E030020DA5D00208DF8770001
:1040000061208DF878006F208DF8790020208DF8E0
:104010007A0064208DF87B006F208DF87C002020D2
:104020008DF87D0046208DF87E0069208DF87F0098
:1040300072208DF880006D208DF8810077208DF83A
:10404000820061208DF8830072208DF88400652045
:104050008DF885003A208DF8860020208DF88700A5
:104060001178142089B100210DF1740804E008F8DA
:1040700000C0491C89B2D8B212F801C0BCF1000FCF
:1040800009D0431C282BF2D305E02D208DF88800A1
:104090008DF8890016201DAA002111541146F748F9
:1040A0000FF009FFF0BBF548017870190938369018
:1040B000F9B1F24810F070FE0146272800D92721F7
:1040C000002028AB202202E01A54401CC0B28842D3
:1040D000FAD300211954CDE902B104913698CDE903
:1040E000009A81B2E64828AA339BB0F84C000EF043
:1040F000EDFD1DA810F050FE00EB40004000811CBB
:104100004FF00008B94203D2381A801E1FFA80F817
:104110000020CDE902B00490CDE9009A36981DAA9E
:1041200081B200E00BE04046339B0EF0CFFD1DAAAC
:104130002821D24810F0DAFDD148A0F84C80DFF8F1
:104140004483D8F83010D8F82C00081AB0F5FA7F5C
:1041500025D3CD48406808F18002116ED36D411A15
:104160000B44C2E91730916D18000AD0814200D982
:104170000146411A64235943B1FBF0F0642800D989
:104180006420BF4F0021D165803F916507F83B0F48
:104190000FF0F8FD7870D8F83010C8F82C10B84A35
:1041A000803A12F83B0F2F9050782E900820049000
:1041B00030462946282D03D92830283980B289B2C3
:1041C0000346142904D9A1F1140300EB53039BB255
:1041D0002A2903D92A3900EB510080B2CDE92C30CD
:1041E000163080B233903046142D02D935981438E9
:1041F00080B2B04202D3811B89B200E000210323C8
:10420000B1FBF3F1731806EB410189B20391CDE9DB
:1042100030069B489BB28038259390F854005FEAA3
:10422000000A16D0BAF1030F01D9032082460320F9
:10423000002526907DB1012D11D0944F03984FF0A9
:104240006009834655450ED38DE8900290A2279BC6
:1042500080E00120EAE78D4F3198C03FEFE78B4FB8
:104260002598603FEBE72846FCF7C6F88446002017
:1042700001E0401CC0B21CF8001009B10A28F8D3B4
:10428000844900231A4651F82510009110E01CF8CB
:104290000210A1F16108B8F1190F01D82039C9B293
:1042A0000DF1A008521C08F803100EF0FF03D2B263
:1042B000824204D203F1010EBEF1100FE7D328A908
:1042C0004FF0000801F803803A208DF87400202098
:1042D0008DF8750002210B461DA8009A10F09AF87F
:1042E000411C202903D21DAA4C231354C8B200221A
:1042F0000DF1740E11460EF8002010460DF1A008C5
:1043000005AB04E003F800C0491CD0B2C9B218F8EC
:1043100001C0BCF1000F02D0421C602AF2D3002180
:10432000F446984604E008F80030491CD0B2C9B2FF
:104330001CF8013013B1421C602AF4D3002208F8A3
:1043400000204146384610F009FD38B98DE890024A
:104350003B9B05AA5946049810F0F0F86D1CEDB28D
:10436000032DFFF467AF45208DF814006E208DF803
:10437000150076208DF8160069208DF817006F2043
:104380008DF8180073208DF819004FF0200B8DF870
:104390001AB050218DF81B1065218DF81C106E216C
:1043A0008DF81D104FF064098DF81E9065218DF871
:1043B0001F106E218DF8201074218DF821106521B9
:1043C0008DF8221073218DF823103A2158468DF86C
:1043D00024108DF8250005AF12252F4811F0F4FAAE
:1043E00002464FF47A73294605A810F083F84FF07F
:1043F000000807F800802699602001291AD00229B8
:1044000021D01E4900946039CDE90110279B3099D5
:1044100005AA049810F092F8002555454AD326982D
:10442000854247D03199012D16D0022D16D0032D8B
:1044300016D016E0154900946039CDE9011005AA9F
:10444000279B2599E5E711490094CDE90110DDE9A5
:10445000031005AA279BDDE7259902E0039900E0F8
:1044600030990A486022C038012D04D0022D15D0A1
:10447000032D15D015E00548603812E0474D0020A7
:104480009800002098010020001000E0A74B0020B9
:104490000000000084EA002018610020FE4800E0CF
:1044A000FE480094CDE90102AFF21C02279B04985C
:1044B00010F044F86D1CEDB2042DAED33E201E90DA
:1044C00031201D904E202A9033984FF0380A2B90BF
:1044D00010F03EFB48B1F2484FF4A67500902C2333
:1044E0003122314628460EF067FB2F9831233022C7
:1044F00025AD642807D38DF894308DF895208DF87C
:10450000962003200FE001460A20B1FBF0F1303184
:104510008DF894102F99B1FBF0F600FB1610303097
:104520008DF89500022025272F54401C464605F89B
:1045300000802E9828A9642807D38DF8A0308DF824
:10454000A1208DF8A22003200FE002460A20B2FB32
:10455000F0F230328DF8A0202E9AB2FBF0F300FB7F
:10456000132030308DF8A10002205D460F54401C0E
:1045700025AB0E546FF00900C749CDE903B0603197
:10458000CDE9014127980090CF201E9A2C9910F078
:104590008DF8C1486FF004018030CDE90140CDE9CC
:1045A00003512798009028AB40F20D101D9A2C99CA
:1045B00010F07CF8DFF8EC8298F81E00F0B398F861
:1045C0001F10424691B192F8200028B192F82200C3
:1045D000462803D3349D0AE0399D08E0282801D3FA
:1045E0003A9D04E0142801D3389D00E0329DDFF8A5
:1045F000B4C20CF1800CBCF8520030B1A84204D017
:10460000A548A030067060300670ACF8525039B33F
:1046100098F8230020B300214FF47A73BCF95C2092
:104620001DA80FF03BFF1DA9422201F80090401C7D
:10463000C0B20A54401CC0B26D2200E041E00A54EE
:10464000401CC0B264230E5498F82220314621A8A1
:104650000FF050FF21A90F54401CC0B20E5416E0B9
:104660002D208DF874008DF875008DF8769042211C
:104670008DF877108DF884006D218DF885008DF808
:1046800078108DF886708DF879608DF88760824893
:104690000095A030CDE90140CDE903B64FF49F79F4
:1046A0005F4621AB48462A9A2D990FF0FFFF7B48C1
:1046B00000954038CDE90140CDE903761DAB484671
:1046C00067E0784A8032B2F8520038B132998842B5
:1046D00004D07148A0300670603006703298A2F89D
:1046E000520098F8230010B300214FF47A73B2F906
:1046F0005C201DA80FF0D2FE1DA9422201F80090F7
:10470000401CC0B264230A54401CC0B26D220A543B
:10471000401CC0B20E5498F82220314621A80FF058
:10472000E9FE21A90F54401CC0B20E5416E02D2002
:104730008DF874008DF875008DF8769042218DF813
:1047400077108DF884006D218DF885008DF8781034
:104750008DF886708DF879608DF887604E4802A9D3
:104760005D46A030019481E86100329800904FF4DA
:104770009F7721AB38462A9A2D990FF097FF47482B
:1047800002A94038019481E86100329800901DAB85
:104790003846DDE92A210FF089FF002598F86100ED
:1047A00029460DF18408C0B13E488030B0F96C0054
:1047B000002804DA2D218DF88410012140420A22BC
:1047C000401DB0FBF2F24FF47A7340460FF092FEB8
:1047D00008F8006000201DAF0BE02D208DF884004C
:1047E0008DF885000220F3E7401C79556D1CC0B29E
:1047F000EDB218F8001011B1AA1C102AF4D343200E
:1048000078556D1CE8B225493E546FF00900CDE99A
:1048100003B08039CDE90141279800904FF4C67864
:1048200055463B46524640462C990FF03FFF1DA887
:104830000EF0C8FF4146854204D9281A400800F509
:10484000C67081B20A391FFA81F8002001466D4610
:1048500003E02A54491CC9B2D8B27A5C22B1432A77
:1048600002D0431C102BF4D32E549DF8000058B1F5
:1048700028460EF0A7FF2C994044401C891C80B2AA
:1048800089B2279A10F058F8074800250DF17408EE
:10489000406C2F27F0B309E0A74B0020E74C002025
:1048A000DCD30608180000201803002031AB2FAA23
:1048B0002EA98DE80E002CAB2AAA30A900F059F9D8
:1048C0009DF8B82029461DA80FF08EFD3A2108F862
:1048D0000010401CC1B245469DF8BC201DA80FF039
:1048E00083FD2E549DF8B020314621A80FF07CFDA9
:1048F00021AD2F54401CC1B29DF8A82028460FF0CE
:1049000073FD2E541F485546CDE90140CDE903B64D
:104910005F4600E01AE0279800904FF4E2781DAB64
:10492000524640462D990FF0C1FE164821AB40304B
:10493000CDE90140CDE90376279800902A4640460C
:104940002B990FF0B3FE3DB0BDE8F08F2D208DF810
:1049500074008DF875003A218DF876108DF884007A
:104960008DF877008DF885008DF878008DF88670C9
:104970008DF888008DF879608DF887008DF8896052
:10498000C0E70000874C002010B5042000F0A2F81A
:10499000002811D0042000F097F80848006B08495F
:1049A0008A681AB18A68821A022A05D38860044884
:1049B0000C384168491C416010BD0000980100207E
:1049C0009CEA002010B5082000F084F8002811D0DF
:1049D000082000F079F80848006B0849CA681AB145
:1049E000CA68821A022A05D3C86004480C38416894
:1049F000491C416010BD0000980100209CEA002085
:104A000010B5102000F066F8002811D0102000F03A
:104A10005BF80848006B08490A681AB10A68821AEC
:104A2000022A05D3086004480C380168491C01605B
:104A300010BD0000980100209CEA00202DE9F04103
:104A40001F48046B202000F045F81E4D05F10C06B0
:104A500060B1202000F038F8706818B17068201A32
:104A6000022803D374602868401C28604FF48077C4
:104A7000384600F02FF860B1384600F025F830696C
:104A800018B13069201A022803D33461A868401C89
:104A9000A8604FF40077384600F01CF800280CD0CE
:104AA000384600F011F8706918B17069201A0228B0
:104AB00003D37461A868401CA860BDE8F0810000C1
:104AC0009801002090EA002001490860704700002A
:104AD000143C0140064A014600201268044B0A407B
:104AE00014331B680B4202D0002A00D0012070470B
:104AF000003C014030B51A4A8379016853B313680A
:104B00008B431360111D0B680468A3430B6001798C
:104B100011440B68046823430B60114B0833196878
:104B20000468A14319601C1D21680568A943216020
:104B30004179102905D011440A68006802430A60CF
:104B400030BD19680268114319602168006801438B
:104B5000216030BD0079104402688A43026030BD94
:104B6000003C01400021016001710C224271817101
:104B700070472DE9F05F8B460AA99946924691E865
:104B80001C003C21B0FBF1F501FB1505B0FBF1F079
:104B90002570B0FBF1F401FB1404B0FBF1F01C70C4
:104BA0001821B0FBF1F3B0FBF1F401FB1303137018
:104BB00040F2B2764FF4B77740F26D1840F6350503
:104BC000304603F0D0FB08B1384600E0404684424E
:104BD00004D3761C241AB6B2AE42F1D3012529467D
:104BE0003046FCF76DFF844204D36D1C241AEDB2ED
:104BF0000C2DF4D9ABF800608AF80050641C89F8D9
:104C00000040BDE8F09F0000F0B5A1B00E460500E1
:104C100079D0AF194BA2394603F078FD4C4C88B1DE
:104C200001F066FD28B194F8420000286CD049A03C
:104C30001CE04D4B4DA28021684610F071FC08B17C
:104C400050A01EE052A23946284603F05FFD28B965
:104C500053A23946284603F059FDD8B101F048FD6A
:104C600038B194F8420000284ED050A0FEF78AF8E0
:104C70004AE03D4B52A28021684610F051FC48B1F9
:104C800055A0FEF77FF833462A466946554810F08E
:104C900059FD39E054A23946284603F037FD002873
:104CA0003ED053A23946284603F030FD18BB52A22D
:104CB0003946284603F02AFDE8B951A2394628466C
:104CC00003F024FDB8B94FA23946284603F01EFD73
:104CD00088B94DA23946284603F018FD58B94CA2B0
:104CE0003946284603F012FD28B94AA2394628461B
:104CF00003F00CFDA0B101F0FBFC40B194F84200C0
:104D000010B147A0B2E71AE0012021B0F0BD164B68
:104D100047A28021684610F003FC08B149A0B0E723
:104D20004AA23946284603F0F1FC40B10E4B4AA294
:104D30008021684610F0F4FB08B14DA0A1E70020E7
:104D4000E3E700006F646F6D6574726F0000000030
:104D50001800002049474E2041434553534F2041FE
:104D600042415354000000006E0300206162616301
:104D70006F6E74726F6C2F726573705F61636573B1
:104D8000736F2F004449522041434553534F000055
:104D90006E756D4F70657261636F65730000000022
:104DA0007374724F7065726163616F0049474E2082
:104DB0004C49535441532041424153540000000098
:104DC000616261636F6E74726F6C2F726573705F76
:104DD0006C69737461732F00444952204C495354D9
:104DE00041530000186100207469706F00000000DA
:104DF0007174745F720000007174745F6100000070
:104E00006164690072656D007475646F0000000074
:104E100061747400636F6E636C7569646F00000089
:104E200049474E2044422041424153540000000073
:104E3000616261636F6E74726F6C2F726573705F05
:104E400044422F0044495220444200007265636589
:104E50006269646F00000000616261636F6E74726A
:104E60006F6C2F726573705F61626173742F0000E5
:104E70004449522041424153540000002DE9F04F73
:104E8000634DA1B08C46A5F860106246B1F5007F75
:104E900001D340F2FF1C00215E4B03E0445C5C54F4
:104EA000491C89B26145F9D35A480027012100F80D
:104EB0000C705748A5F85EC0803800F8321F007C9F
:104EC00000287DD04F208DF800004FF0540A6C2050
:104ED0008DF801A04FF0480B8DF804006C468DF85A
:104EE00002B04FF020093D2642F210788DF8039071
:104EF0008DF805604346464D062120460FF0FAFA2C
:104F000020212154401CC0B263212154401CC0B256
:104F100043462654401CC1B235F85E2F68460FF058
:104F2000E9FA27546846FDF72DFF2D88F02D00D9AA
:104F3000F02500260DF140083BE04F208DF84000A1
:104F40008DF841A08DF842B04C468DF84390042175
:104F500042F21073324610A80FF0CCFA811C40299F
:104F600008D23A2208F80020401CC0B208F80040DD
:104F7000401CC0B20024DFF89CC043460AE01CF885
:104F800002200D2A01D00A2A00D120221A54641CC2
:104F9000C8B2A4B2321991B2A94202D2411C40292E
:104FA000EDD308F8007010A8FDF7ECFE301986B2BA
:104FB0000CB1AE42C1D31648B0F85E00A84200E082
:104FC00023E022D92E228DF844208DF845208DF83B
:104FD00046204F218DF840102B228DF848208DF867
:104FE00041A010AC8DF842B0421B8DF843908DF873
:104FF00047908DF849900A2142F2107320460FF035
:1050000079FA275410A8FDF7BDFE21B0BDE8F08F56
:1050100098000020ED5E0020F0B504464FF4807645
:1050200091B000232FA231462F4803F031FA002C13
:1050300056D02E48002590F84200E0B153208DF85C
:10504000000055208DF8010042208DF8020020203C
:105050008DF8030004206F46002103E03B54491CF7
:1050600089B2D0B2635C13B1421C402AF6D33D54DE
:105070003846FDF787FE002301E05B1C9BB2E05C35
:1050800008B1FF2BF9D322463146174803F000FA46
:10509000174C18A24FF4C871257020460FF026FE59
:1050A00020460FF06CFEC0F5C87520460FF067FE75
:1050B00020440D4A29460FF019FE20460FF05FFEEE
:1050C000C0F5C87520460FF05AFE204411A22946AB
:1050D0000FF00CFE11B02046BDE8F04001F0DAB848
:1050E00011B0F0BD00000000A41C0020180000203A
:1050F000141B00207B2274797065223A226D717432
:10510000745F737562222C22746F706963223A2275
:1051100000000000227D0A00F0B504464FF48076BE
:1051200091B000232FA231462F4803F0B1F9002C93
:1051300056D02E48002590F84200E0B155208DF859
:1051400000004E208DF8010053208DF80200202031
:105150008DF8030004206F46002103E03B54491CF6
:1051600089B2D0B2635C13B1421C402AF6D33D54DD
:105170003846FDF707FE002301E05B1C9BB2E05CB4
:1051800008B1FF2BF9D322463146174803F080F9C6
:10519000174C18A24FF4C871257020460FF0A6FDD9
:1051A00020460FF0ECFDC0F5C87520460FF0E7FD76
:1051B00020440D4A29460FF099FD20460FF0DFFDEF
:1051C000C0F5C87520460FF0DAFD204411A229462B
:1051D0000FF08CFD11B02046BDE8F04001F05AB848
:1051E00011B0F0BD00000000341F002018000020A6
:1051F000A41D00207B2274797065223A226D71749F
:10520000745F756E737562222C22746F70696322ED
:105210003A220000227D0A002DE9F34FADF2445DF1
:105220000F46DDF84405FDA238440146CDF8D00410
:10523000DDF8440503F06AFADFF8E8834FF0200B4D
:105240004FF0010A002608F50075CDF8400530B38F
:105250000DF5A86310220DF5A26103F08CFBF0B1EF
:10526000F1A10DF5A2600EF026FE00284CD0E868F2
:10527000401CE8603946DDF8440501F01DF80DF2E8
:105280004C5DBDE8F08F01ABE9A20094DDF8D014CD
:10529000DDF8440503F0BBFA00287DD1ABE10296AE
:1052A0000196E5A2DDF8D014DDF8440503F02EFAEE
:1052B0000028F2D1E4A2DDF8D014DDF8440503F0B3
:1052C00025FA0028E9D1E3A2DDF8D014DDF8440581
:1052D00003F01CFA0028E0D102AC01ABE1A200947B
:1052E000DDF8D014DDF8440503F091FA0028D4D19C
:1052F00001ABDEA20094DDF8D014DDF8440503F024
:1053000086FA0028C9D1BEE7DBA10DF5A2600EF038
:10531000D2FD00286ED098F8259098F824706C6B18
:105320008DF81C60D6A2DDF8D014DDF8440503F03A
:10533000EDF9009040B16A4607A903F0A4FA18B14C
:105340009DF81C0088F82400D0A20196DDF8D01446
:10535000DDF8440503F0DAF9009058B16A4601A976
:1053600003F07AFC30B10198FF2801D9FF200190A9
:1053700088F82500C7A20196DDF8D014DDF84405B1
:1053800003F0C4F9009030B16A4601A903F064FC4F
:1053900008B10198686300E003E18DF80860BEA2DF
:1053A000DDF8D014DDF8440503F0B0F9009060B1E9
:1053B0006B46142202A903F0DEFA30B102AA1421CE
:1053C000B7480FF093FCB648C674B64888F81EA0DC
:1053D0005146006B286398F825204A4507D198F874
:1053E0002420BA4203D1686BA0423FF448AF88F84A
:1053F000261044E78EA10DF5A2600EF05CFD00289A
:1054000075D0A868401CA8608DF850648DF80460C1
:10541000A5A2DDF8D014DDF8440503F077F900907B
:1054200028B16B4680220DF58A6103F0A4FAA0A290
:10543000DDF8D014DDF8440503F068F9009028B1D8
:105440006B4640F24C4201A903F095FA002401A8F2
:1054500040F24B4101E0641CA4B2025D0AB18C42EF
:10546000F9D39DF850040028C3D098F8420088B3BF
:1054700052208DF8D00458208DF8D10403200DF56A
:105480009A655F468DF8D2B400210DF58A6C03E071
:105490002B54491C89B2D0B21CF8013013B1421C04
:1054A000402AF5D324B3411C402901D22F54C8B25D
:1054B0006E212954401CC0B23D212954401CC1B268
:1054C0007D4B224628460FF015F82E540DF59A60B4
:1054D000FDF758FC002C8CD001F00AF928B30DF52B
:1054E0008A6576A128460EF0BBFCB0B90BE021E03E
:1054F000811C4029E9D22F54401CC0B230212954CC
:10550000401CC0B2E1E772A128460EF0A9FC20B908
:1055100075A128460EF0A4FC38B198F84200002886
:10552000A2D077A0FDF72EFCA9E6234601AA0DF52F
:105530008A612CE076A10DF5A2600EF0BCFC50B3A0
:10554000A868401CA8608DF8006057A2DDF8D01450
:10555000DDF8440503F0DAF8209020B120AB80227A
:10556000694603F008FA9DF8000048B96D4B6EA239
:10557000802168460FF0D4FF9DF800000028D3D0AA
:105580006FA0FDF7FFFBDDF844253B4669466F48F9
:1055900010F0D8F873E66EA10DF5A2600EF08BFC4A
:1055A00048B36868401C68603E4F386B88F81EA09E
:1055B0002863B9695446411AC146C829B4D3B861B1
:1055C0001DA2DDF8D014DDF8440503F09FF800902B
:1055D00008B36A4601A903F056F9E0B199F81F1023
:1055E0009DF8040089F81F00884216D089F84040D1
:1055F00090B159A0B5E03946DDF84405FFF704FB4A
:10560000002891D12869401C28613946DDF84405FD
:10561000FFF734FC33E6AFE0A2E0A4E074797065F4
:1056200000000000180000207570646174650000BF
:105630006D71747400000000776966695F636F6E56
:105640006E65637465640000696E7465726E65747E
:105650005F6F6B006D7174745F636F6E6E65637402
:10566000656400007769666900000000696E746512
:10567000726E65740000000061705F7374610000F9
:10568000636F6E6E6563746564000000636F756EB2
:10569000740000007365710061705F697000000044
:1056A000EE5D002098010020746F706963000000B7
:1056B0007061796C6F616400A08601006162616352
:1056C0006F6E74726F6C2F726573705F44422F003F
:1056D000616261636F6E74726F6C2F726573705F5D
:1056E00061636573736F2F00616261636F6E7472C3
:1056F0006F6C2F726573705F6C69737461732F00C8
:1057000049474E204D5154542041424153540000CA
:1057100061636B5F61626173746563696D656E740B
:105720006F0000006E030020616261636F6E74722F
:105730006F6C2F726573705F61626173742F00000C
:105740004449522041424153540000001861002056
:10575000737461747573000057694669204F4E0079
:10576000FDA0FDF70FFB99F81F1029B989F82160FA
:105770000021FC4810F034F9AFF23412DDF8D014F7
:10578000DDF8440502F0C2FF0090A0B16A4601A90D
:1057900003F079F878B14A469DF8040012F8201F0A
:1057A0001070884207D089F8404008B1EEA000E0B0
:1057B000EFA0FDF7E7FAAFF26412DDF8D014DDF8E0
:1057C000440502F0A3FF0090B0B36A4601A903F0BC
:1057D0005AF888B399F821809DF8040089F82100CF
:1057E000404507D089F8404008B1E4A000E0E5A0BA
:1057F000FDF7C8FAB8F1000F08D199F8211069B186
:1058000089F82840386BA86308F0BEFF99F821108A
:10581000484619B190F8281019B108E089F82860B5
:1058200005E089F82840386BA86308F0ADFF99F8C7
:105830002110CC4810F0D4F80DF22C50031FAFF219
:10584000DC120090DDF8D014DDF8440502F0DFFF33
:10585000F0B3CF4899F81F8090F800A0AFF2E012A3
:105860000DF5A56003C802F051FF0090A0B16A4693
:1058700002A903F008F878B19DF80800494689F8B4
:105880001F00404501D081F8404028B989F82160C7
:105890000021B44810F0A4F80DF5A560BDA203C81E
:1058A00002F034FF009058B16B461422B84903F05F
:1058B00062F828B1B6480178514501D089F84040D6
:1058C0000DF5A560B4A203C802F020FF009000E02F
:1058D00047E080B303F0EEF901784FF0000A2D297C
:1058E00002D14FF0010A401C00210B466FF02F0C33
:1058F00006E001EB810101230CEB41011144401C46
:105900000278A2F13008B8F1090FF2D99BB1BAF1CF
:10591000000F00D049420090A248814201DA0146BE
:1059200004E0B1F5004F01DB47F6FF719E48A0F897
:105930005C1089F823400DF5A5609CA203C802F015
:10594000E5FE009068B16A4601A903F085F940B10F
:105950000198642801D96420019089F8220089F80F
:1059600023400DF23C50031FAFF200320090DDF8EF
:10597000D014DDF8440502F04AFFE0B10DF5A76050
:105980008DA203C802F0C2FE0090A0B16A4601A930
:1059900002F079FF78B14A469DF8040012F8201F02
:1059A0001070884207D089F8404008B16EA000E02E
:1059B0006FA0FDF7E7F90DF22C50031FAFF2903204
:1059C0000090DDF8D014DDF8440502F020FFD0B3DC
:1059D000AFF254320DF5A56003C802F097FE0090B7
:1059E00040B9AFF290320DF5A56003C802F08EFE0B
:1059F000009040B36A4601A902F045FF18B399F838
:105A000021809DF8040089F82100404507D089F8DD
:105A1000404008B159A000E05AA0FDF7B3F9B8F131
:105A2000000F08D199F8211071B189F82840386B1E
:105A3000A86308F0A9FE99F82110484621B190F812
:105A4000281021B109E00DE089F8286005E089F807
:105A50002840386BA86308F097FE99F82110414858
:105A60000FF0BEFF99F84200C846C8B3386A28B1A3
:105A7000396B081A42F2107188423AD3386B386297
:105A800053208DF8000077208DF801B08DF80200CA
:105A90003D218DF8031098F81F005B46424608B17F
:105AA000312000E030208DF804008DF805306E20A4
:105AB0008DF806008DF8071092F8200008B131200B
:105AC00000E030208DF808008DF809306D208DF849
:105AD0000A008DF80B1098F8210010B1312001E078
